:100000000C94F4050C9411060C9411060C94110632
:100010000C9411060C9411060C9411060C94110604
:100020000C9411060C9411060C9411060C941106F4
:100030000C9411060C9411060C94D2090C94110620
:100040000C9411060C9411060C9411060C941106D4
:100050000C9411060C9411060C9411060C941106C4
:100060000C9411060C94110600000100010001001F
:100070000100010001010100000000000000010179
:10008000000000000001000100010001000100016A
:10009000010100000000010000000000000001005C
:1000A000010000000000010001000001000000004C
:1000B000010000000001000000000000000000013D
:1000C000000000000100000000000000000000002F
:1000D0000100010101010100000001000101010115
:1000E000000000000000000001000001010101010A
:1000F00001000000010001000000010000000001FB
:1001000001000000000000000000000000010001EC
:1001100000010001000100010101000000000000D9
:1001200000010100000000000100010001000100C9
:1001300001000101010000000001000000000000BA
:1001400000000000010001000100010001000101A8
:10015000010000000000000001010000000000019B
:100160000001000100010001000101010000000088
:10017000010000000000000001000100000000007C
:10018000010001000001000000000100000000016A
:10019000000000000000000000010000000001005D
:1001A000000000000000000000000100010101014A
:1001B0000100000001000101010100000000000039
:1001C0000000010000010101010101000000010027
:1001D000010000000100000000010100000000001B
:1001E000000000000000000100010001000100010A
:1001F00000010101000000000000000101000000FA
:1002000000000100010001000100010001010100E6
:1002100000000001000000000000000000000100DC
:1002200001000100010001000101010000000000C7
:1002300000000101000000000001000100010001B8
:1002400000010001010100000000010000000000A9
:10025000000001000100000000000100010000009A
:100260000100010001000100010001010100000086
:100270000000000001010000000000010001000179
:100280000001000100010101000000000000000069
:100290000000000002000000010001000100010058
:1002A0000100010101000000000000000101000048
:1002B0000000000100010001000100010001010136
:1002C000000000000000000000000000000000002E
:1002D0000100010001000100010001010100000016
:1002E0000000000001010000000000010001000109
:1002F00000010001000101010000000001000000F8
:1003000000000000000000010001000100010001E8
:1003100000010101000000000000000101000000D8
:1003200000000100010001000100010001010100C5
:1003300000000001000000000000000100010000BA
:10034000000000010001000002020202010302029B
:100350000103020201030202020202040404040374
:10036000030202020202020103020201030202016D
:10037000030202020202080202020204040404024E
:100380000103020201030202011D1008020202021F
:100390000802020202080202020202020202080825
:1003A000020202020802020202040402020202061F
:1003B0000208020102010402020204020107010113
:1003C0000202020201020302030302080201020107
:1003D00004020202040201050202040202020103F5
:1003E00002060101080201020102020202020201E8
:1003F00003020201030202010302020202020404D8
:1004000004040303020202020202010302020103C6
:1004100002020103020202020208020202020303B4
:1004200002020202020201030202010302020103AC
:100430000202020202040404040303020202020292
:10044000020103020201030202010302020202028C
:10045000080202020204040404020103020201036E
:100460000202011D10080202020208020202020832
:10047000020202020202020208080202020208024A
:100480000202020404020202020602080201020140
:100490000402020204020107010102020202010237
:1004A0000302030302080201020104020202040221
:1004B0000105020204020202010302060101080210
:1004C000010201020202020202010302020103020E
:1004D00002010302020202020404040403030202F2
:1004E00002020202010302020103020201030202EC
:1004F00002020208020202020303020202020202D4
:1005000001030202010302020103020202020204C9
:1005100004040403030202020202020103020201B4
:1005200003020201030202020202080202020204A2
:100530000404040201030202010302020115020283
:10054000020201030202010302020103020202028B
:100550000204040404030302020202020201030271
:100560000201030202010302020202020602020267
:100570000202030302020202020201030202010359
:100580000202010302020202020404040403030241
:10059000020202020201030202010302020103023B
:1005A0000202020206020202020203030202020225
:1005B000020201030202010302020103020202021B
:1005C0000204040404030302020202020201030201
:1005D00002010302020103020202020208020202F5
:1005E00002030302020202020201030202010302E9
:1005F00002010302020202020404040403030202D1
:1006000002020202010302020103020201030202CA
:1006100002020208020202020404040402010302AC
:100620000201030202012D202F9E97A726D326D375
:100630001DBC1DBC26D326D31DBC1DBC26D326D372
:100640001DBC1DBC1DBC1DBC97A72F9EED8C97A784
:1006500026D38176ED8CED8CED8C8D7D00002F9E68
:1006600097A726D326D31DBC1DBC26D326D31DBCDD
:100670001DBC26D326D31DBC1DBC1DBC1DBC97A70D
:100680002F9EED8C1DBC1DBC97A72F9EED8C97A7B0
:1006900026D31AFB26D326D31DBC1DBC2F9E97A79D
:1006A00026D31AFB26D326D31DBC1DBC00001DBCBF
:1006B0001DBC4DC71DBC97A71DBC1DBC4DC71DBC97
:1006C00097A74E954E95ED8C4E9597A74E9597A76B
:1006D0001DBC8D7D4E951DBC1DBC4DC71DBC97A777
:1006E0001DBC1DBC4DC71DBC97A74E95B5DF97A778
:1006F0001DBC4DC71DBC4DC7B5DFB5DF4E954E9532
:100700004E954E954E954E9597A71DBC4DC74DC71E
:100710008D7D8D7D8D7D8D7D8D7DED8C4E9597A70D
:10072000ED8C4E9597A71DBC4DC74DC7B5DF1DBCC1
:100730001DBC1DBC1DBC1DBC1DBC1DBC97A72F9E98
:1007400097A797A726D326D3000026D3B5DFB5DF1A
:100750001AFBB5DF4DC71DBC1DBC1DBC4DC7B5DFA9
:100760004DC71AFB000002ED00001AFB00002F9E8F
:1007700097A726D326D31DBC1DBC26D326D31DBCCC
:100780001DBC26D326D31DBC1DBC1DBC1DBC97A7FC
:100790002F9EED8C97A726D38176ED8CED8CED8C7A
:1007A0008D7D00002F9E97A726D326D31DBC1DBC90
:1007B00026D326D31DBC1DBC26D326D31DBC1DBCF1
:1007C0001DBC1DBC97A72F9EED8C1DBC1DBC97A703
:1007D0002F9EED8C97A726D31AFB00002F9E97A77C
:1007E00026D326D31DBC1DBC26D326D31DBC1DBCC1
:1007F00026D326D31DBC1DBC1DBC1DBC97A72F9E98
:10080000ED8C97A726D38176ED8CED8CED8C8D7DCC
:1008100000002F9E97A726D326D31DBC1DBC26D330
:1008200026D31DBC1DBC26D326D31DBC1DBC1DBCA0
:100830001DBC97A72F9EED8C1DBC1DBC97A72F9E9E
:10084000ED8C97A726D31AFB26D326D31DBC1DBC3F
:100850002F9E97A726D31AFB26D326D31DBC1DBCDB
:1008600000001DBC1DBC4DC71DBC97A71DBC1DBCF9
:100870004DC71DBC97A74E954E95ED8C4E9597A7ED
:100880004E9597A71DBC8D7D4E951DBC1DBC4DC7BB
:100890001DBC97A71DBC1DBC4DC71DBC97A74E9581
:1008A000B5DF97A71DBC4DC71DBC4DC7B5DFB5DF74
:1008B0004E954E954E954E954E954E9597A71DBCCF
:1008C0004DC74DC78D7D8D7D8D7D8D7D8D7DED8C55
:1008D0004E9597A7ED8C4E9597A71DBC4DC74DC75C
:1008E000B5DF1DBC1DBC1DBC1DBC1DBC1DBC1DBC85
:1008F00097A72F9E97A797A726D326D3000026D386
:10090000B5DFB5DF1AFBB5DF4DC71DBC1DBC1DBC77
:100910004DC7B5DF4DC71AFB000002ED00001AFB02
:1009200000002F9E97A726D326D31DBC1DBC26D31F
:1009300026D31DBC1DBC26D326D31DBC1DBC1DBC8F
:100940001DBC97A72F9EED8C97A726D38176ED8CA3
:10095000ED8CED8C8D7D00002F9E97A726D326D39E
:100960001DBC1DBC26D326D31DBC1DBC26D326D33F
:100970001DBC1DBC1DBC1DBC97A72F9EED8C1DBCB6
:100980001DBC97A72F9EED8C97A726D31AFB0000BE
:100990002F9E97A726D326D31DBC1DBC26D326D3B6
:1009A0001DBC1DBC26D326D31DBC1DBC1DBC1DBC3F
:1009B00097A72F9EED8C97A726D38176ED8CED8C93
:1009C000ED8C8D7D00002F9E97A726D326D31DBCCE
:1009D0001DBC26D326D31DBC1DBC26D326D31DBCCF
:1009E0001DBC1DBC1DBC97A72F9EED8C1DBC1DBC46
:1009F00097A72F9EED8C97A726D31AFB26D326D335
:100A00001DBC1DBC2F9E97A726D31AFB26D326D329
:100A10001DBC1DBC97A78EB1B5DFB5DF4DC74DC757
:100A2000B5DFB5DF4DC74DC7B5DFB5DF4DC74DC726
:100A30004DC74DC78EB197A74E958EB1B5DF8D7D51
:100A40004E954E954E950485000097A78EB1B5DF63
:100A5000B5DF4DC74DC7B5DFB5DF4DC74DC7B5DFF6
:100A6000B5DF4DC74DC74DC74DC78EB197A74E9542
:100A70004DC700004DC78EB197A74E958EB1B5DF1B
:100A80004121000097A78EB1B5DFB5DF4DC74DC737
:100A9000B5DFB5DF4DC74DC7B5DFB5DF4DC74DC7B6
:100AA0004DC74DC78EB197A74E958EB1B5DF8D7DE1
:100AB0004E954E954E950485000097A78EB1B5DFF3
:100AC000B5DF4DC74DC7B5DFB5DF4DC74DC7B5DF86
:100AD000B5DF4DC74DC74DC74DC78EB197A74E95D2
:100AE0004DC700004DC78EB197A74E9504858D7DEB
:100AF000048500002F9E97A726D326D31DBC1DBCBE
:100B000026D326D31DBC1DBC26D326D31DBC1DBC9D
:100B10001DBC1DBC97A72F9EED8C97A726D3817671
:100B2000ED8CED8CED8C8D7D00002F9E97A726D34C
:100B300026D31DBC1DBC26D326D31DBC1DBC26D36D
:100B400026D31DBC1DBC1DBC1DBC97A72F9EED8CC4
:100B50001DBC1DBC97A72F9EED8C97A726D31AFB13
:100B600000002F9E97A726D326D31DBC1DBC26D3DD
:100B700026D31DBC1DBC26D326D31DBC1DBC1DBC4D
:100B80001DBC97A72F9EED8C97A726D38176ED8C61
:100B9000ED8CED8C8D7D00002F9E97A726D326D35C
:100BA0001DBC1DBC26D326D31DBC1DBC26D326D3FD
:100BB0001DBC1DBC1DBC1DBC97A72F9EED8C1DBC74
:100BC0001DBC97A72F9EED8C97A726D31AFB26D383
:100BD00026D31DBC1DBC2F9E97A726D31AFB26D358
:100BE00026D31DBC1DBC000011241FBECFEFD4E0D6
:100BF000DEBFCDBF11E0A0E0B1E0E8EAF4E102C061
:100C000005900D92A230B107D9F721E0A2E0B1E042
:100C100001C01D92AD32B207E1F70E94340A0C9474
:100C2000520A0C94000086E090E0909312018093A9
:100C3000110181E090E090931401809313010895D5
:100C400090931201809311010895CF93DF9300D008
:100C500000D01F92CDB7DEB7FC01EE0FFF1FE85D9D
:100C6000F94F25913491FC01E85BFC4F459154917B
:100C700088599F4FFC01659174913A83298389E6D5
:100C8000489FA00111245C834B833A815C8170E012
:100C900080E090E00F900F900F900F900F90DF91F9
:100CA000CF9108951F93CF93DF9320910C01309142
:100CB0000D012817390771F0162FEC010E940B085F
:100CC000D0930D01C0930C0110930B01DF91CF91D4
:100CD0001F91089520910B012613EECFF7CF60E00E
:100CE00080E090E00C9452060F931F93CF93809175
:100CF00011019091120186309105F1F18230910538
:100D000009F47BC0009749F5109214011092130169
:100D10008091090190910A010097D9F16091060133
:100D2000449710F460FDA4C08091020190910301EA
:100D30000E9452068091090190910A0101979093B7
:100D40000A018093090186E090E09093120180935C
:100D50001101CF911F910F9108958130910509F4F0
:100D600053C08330910509F469C08530910509F4B9
:100D7000E9C0049709F491C0809113019091140186
:100D8000892B09F047C08091090190910A010097D1
:100D900029F68091000181115EC0209107013091F8
:100DA00008012F5F3F4F203E82E0380709F066C000
:100DB000109208011092070128E630E088E493E0E1
:100DC000E8E2F6E045915491FC0185919491F90196
:100DD00065917491A9E68A9FC00111245093030183
:100DE00040930201909305018093040160930601F2
:100DF00090930A018093090193CF80911301909100
:100E00001401019709F480CF81E090E090931401E0
:100E10008093130160E080E090E00E94520693CF3F
:100E20001092080110920701B0930301A0930201F0
:100E300090930501809304010093060181E0809363
:100E4000000110920A011092090180911301909102
:100E50001401892BF9F610920801109207011092E3
:100E6000000128E630E088E493E0E8E2F6E0AACF6B
:100E700060E080E090E00E9452065CCF3093080171
:100E800020930701F901EE0FFF1FE85DF94FC9013B
:100E9000885B9C4F28593F4F95CF809109019091D5
:100EA0000A01883823E1920708F0B1C028E833E14D
:100EB000281B390B40910701509108014F5F5F4F8C
:100EC0005093080140930701403E82E0580709F41F
:100ED00098C0CA01C9E60AC02E1B3F0BCA01019681
:100EE000AC01803EA2E09A0709F47DC0FC01EE0F40
:100EF000FF1FE85DF94F65917491FC01E85BFC4FC1
:100F0000A591B491FC01E859FF4F05911491AC9F54
:100F1000F0011124E217F307F8F29093080180938F
:100F200007017093030160930201F0930501E093C0
:100F3000040100930601E21BF30BF0930A01E09316
:100F400009011ACF4091090150910A0148575C4E9E
:100F500050930A0140930901809104019091050189
:100F60008417950708F008CF2091070130910801F8
:100F70002115310509F462CFB901660F771F6A5D4B
:100F8000794FC9E606C0625071092115310509F48F
:100F900047CF481B590B21503109FB01A591B49152
:100FA000F901E85BFC4F85919491F901E859FF4FF5
:100FB000059114918C9FC00111248417950718F393
:100FC00050930A01409309013093080120930701CF
:100FD000B0930301A0930201909305018093040153
:100FE00000930601C9CE9093080180930701709386
:100FF000030160930201F0930501E0930401009363
:10100000060181E080930001E0E0F0E096CFFC0172
:10101000E858F34192CF0097C1F022E82093800076
:1010200029E12093810061FF03C02AE12093810020
:1010300090938700809386009695879596958795DF
:1010400090938900809388000895109280001092F8
:1010500081002998089510928000109281002998AB
:1010600008950C942B0882E084B98DEF85B917B8E8
:101070009FEF98B993E09AB98BB90E945A090E94E0
:10108000EC080E942B080C94C9090E941C090C94BE
:10109000AE08009779F0019709F008958BB18D7F24
:1010A000660F680F6BB91092190110921801109217
:1010B0001A0108958BB18E7F680F6BB910921601DB
:1010C00010921501109217010895009731F00197C1
:1010D00009F0089582E089B9089581E089B90895F9
:1010E000611107C021E030E0009739F0019761F00D
:1010F000089522E030E00097C9F73093160120935D
:1011000015011092170108953093190120931801C9
:1011100010921A010895FB012081318121153105BA
:1011200081F0428141110AC0009761F0019789F076
:101130002130310561F08AE2828308959FEF940F98
:101140009283089581E089B920813181F1CF84E5CE
:10115000F3CF82E089B920813181EACF80910E01FD
:101160008530F0F08091150190911601892B39F0AE
:1011700080911701882311F181508093170180918C
:10118000180190911901892B39F080911A01882357
:1011900059F0815080931A0181E080930E010895E7
:1011A0008F5F80930E01089582E089B980911801C4
:1011B00090911901019761F08AE2ECCF81E089B941
:1011C0008091150190911601019721F08AE2D5CF07
:1011D00084E5E0CF84E5D1CF5898E5E1F1E01182D4
:1011E000108212825998E8E1F1E011821082128295
:1011F0000895FC01138214828581882391F0815027
:1012000085838081882351F081819281803D27E010
:10121000920730F40196928381830895128211829D
:10122000089581E086279081891721F08383648364
:1012300095E095838083E6CF66B163FB662760F90E
:101240008BE191E00E94F90866B16695617087E2D2
:1012500091E00E94F90866B1617081E291E00C941E
:10126000F908CF93DF93CDB7DEB72C970FB6F8947C
:10127000DEBF0FBECDBFFE01379686E0DF011D92B7
:101280008A95E9F786E0DE01119601900D928A9524
:10129000E1F729813A814B815C816D817E8180E01B
:1012A00090E02C960FB6F894DEBF0FBECDBFDF9155
:1012B000CF910895CF93DF93CDB7DEB7A4970FB644
:1012C000F894DEBF0FBECDBF26E0CE010796FC012D
:1012D000322F11923A95E9F736E0FC01DE011196C2
:1012E00001900D923A95E1F736E0FE013196DC016E
:1012F00001900D923A95E1F736E0FC01A1E2B1E0F0
:1013000001900D923A95E1F70C96FC01322F119263
:101310003A95E9F736E0FC01DE011D9601900D9249
:101320003A95E1F736E0FE013D96DC0101900D9221
:101330003A95E1F736E0FC01A7E2B1E001900D92A9
:101340003A95E1F70C96FC0111922A95E9F726E00F
:10135000FC01DE01599601900D922A95E1F726E0F5
:10136000FE017996DC0101900D922A95E1F726E0C5
:10137000FC01ABE1B1E001900D922A95E1F7A49652
:101380000FB6F894DEBF0FBECDBFDF91CF910C94A6
:101390001C0982E084BD94E095BD80936E008EE4CC
:1013A00087BD08951F920F920FB60F9211242F93AD
:1013B0003F934F935F936F937F938F939F93AF93DD
:1013C000BF93EF93FF930E94120AFF91EF91BF9199
:1013D000AF919F918F917F916F915F914F913F91CD
:1013E0002F910F900FBE0F901F9018950F931F9382
:1013F000CF93DF938C01C62FD42F81E090E00E9421
:1014000065086D2FC8010E940B0889E6C89FB001CE
:1014100011247093100160930F01DF91CF911F9100
:101420000F9108950E94450880912A01811117C0EB
:101430008091240181110AC080911E01882321F02E
:1014400084E090E00E9420060C94740682E090E014
:101450000E94200680E090E00E946508EDCF85E0C4
:1014600090E00E942006E4CF0E9433080E941306F9
:10147000789480E090E00E94200661E081E090E0B6
:101480000E94490861E081E090E00E94700883B703
:10149000817F83BF83B7816083BF889583B78E7F49
:0814A00083BFF8CFF894FFCFE1
:0214A800010041
:00000001FF
